{
  "contractName": "TodoList",
  "abi": [
    {
      "constant": true,
      "inputs": [
        {
          "name": "",
          "type": "uint256"
        }
      ],
      "name": "tasks",
      "outputs": [
        {
          "name": "id",
          "type": "uint256"
        },
        {
          "name": "content",
          "type": "string"
        },
        {
          "name": "completed",
          "type": "bool"
        }
      ],
      "payable": false,
      "stateMutability": "view",
      "type": "function",
      "signature": "0x8d977672"
    },
    {
      "constant": true,
      "inputs": [],
      "name": "taskCount",
      "outputs": [
        {
          "name": "",
          "type": "uint256"
        }
      ],
      "payable": false,
      "stateMutability": "view",
      "type": "function",
      "signature": "0xb6cb58a5"
    },
    {
      "inputs": [],
      "payable": false,
      "stateMutability": "nonpayable",
      "type": "constructor",
      "signature": "constructor"
    },
    {
      "anonymous": false,
      "inputs": [
        {
          "indexed": false,
          "name": "id",
          "type": "uint256"
        },
        {
          "indexed": false,
          "name": "content",
          "type": "string"
        },
        {
          "indexed": false,
          "name": "completed",
          "type": "bool"
        }
      ],
      "name": "TaskCreated",
      "type": "event",
      "signature": "0x05d0fb833127fc08168556d0e7ca9554fc3f6bc843b3b7d2bf1c35aea6bab660"
    },
    {
      "anonymous": false,
      "inputs": [
        {
          "indexed": false,
          "name": "id",
          "type": "uint256"
        },
        {
          "indexed": false,
          "name": "completed",
          "type": "bool"
        }
      ],
      "name": "ToggleTask",
      "type": "event",
      "signature": "0xb36dba0611b9e747259c1d687af8bebebf5217f0bb60cbd937fee265bdbf6c72"
    },
    {
      "anonymous": false,
      "inputs": [
        {
          "indexed": false,
          "name": "id",
          "type": "uint256"
        },
        {
          "indexed": false,
          "name": "content",
          "type": "string"
        }
      ],
      "name": "TaskDeleted",
      "type": "event",
      "signature": "0xa22e3c89596b7c57ffab8fec2bd1b7fb1c990c7daf72f79ca773c33fddfbd38b"
    },
    {
      "constant": false,
      "inputs": [
        {
          "name": "_content",
          "type": "string"
        }
      ],
      "name": "createTask",
      "outputs": [],
      "payable": false,
      "stateMutability": "nonpayable",
      "type": "function",
      "signature": "0x111002aa"
    },
    {
      "constant": false,
      "inputs": [
        {
          "name": "_id",
          "type": "uint256"
        }
      ],
      "name": "toggleCompleted",
      "outputs": [],
      "payable": false,
      "stateMutability": "nonpayable",
      "type": "function",
      "signature": "0x455f5024"
    },
    {
      "constant": false,
      "inputs": [
        {
          "name": "_id",
          "type": "uint256"
        }
      ],
      "name": "deleteTask",
      "outputs": [],
      "payable": false,
      "stateMutability": "nonpayable",
      "type": "function",
      "signature": "0x560f3192"
    }
  ],
  "bytecode": "0x60806040526000805534801561001457600080fd5b506100626040805190810160405280600f81526020017f486176652061206e6963652064617900000000000000000000000000000000008152506100b4640100000000026401000000009004565b6100af6040805190810160405280601381526020017f486176652061206e6963652064617920746f6f000000000000000000000000008152506100b4640100000000026401000000009004565b61029f565b600080815480929190600101919050555060606040519081016040528060005481526020018281526020016000151581525060016000805481526020019081526020016000206000820151816000015560208201518160010190805190602001906101209291906101fa565b5060408201518160020160006101000a81548160ff0219169083151502179055509050507f05d0fb833127fc08168556d0e7ca9554fc3f6bc843b3b7d2bf1c35aea6bab660600054826000604051808481526020018060200183151515158152602001828103825284818151815260200191508051906020019080838360005b838110156101bb5780820151818401526020810190506101a0565b50505050905090810190601f1680156101e85780820380516001836020036101000a031916815260200191505b5094505050505060405180910390a150565b828054600181600116156101000203166002900490600052602060002090601f016020900481019282601f1061023b57805160ff1916838001178555610269565b82800160010185558215610269579182015b8281111561026857825182559160200191906001019061024d565b5b509050610276919061027a565b5090565b61029c91905b80821115610298576000816000905550600101610280565b5090565b90565b610a39806102ae6000396000f3fe60806040526004361061006d576000357c0100000000000000000000000000000000000000000000000000000000900463ffffffff168063111002aa14610072578063455f50241461013a578063560f3192146101755780638d977672146101b0578063b6cb58a514610276575b600080fd5b34801561007e57600080fd5b506101386004803603602081101561009557600080fd5b81019080803590602001906401000000008111156100b257600080fd5b8201836020820111156100c457600080fd5b803590602001918460018302840111640100000000831117156100e657600080fd5b91908080601f016020809104026020016040519081016040528093929190818152602001838380828437600081840152601f19601f8201169050808301925050505050505091929192905050506102a1565b005b34801561014657600080fd5b506101736004803603602081101561015d57600080fd5b81019080803590602001909291905050506103e7565b005b34801561018157600080fd5b506101ae6004803603602081101561019857600080fd5b8101908080359060200190929190505050610595565b005b3480156101bc57600080fd5b506101e9600480360360208110156101d357600080fd5b8101908080359060200190929190505050610827565b604051808481526020018060200183151515158152602001828103825284818151815260200191508051906020019080838360005b8381101561023957808201518184015260208101905061021e565b50505050905090810190601f1680156102665780820380516001836020036101000a031916815260200191505b5094505050505060405180910390f35b34801561028257600080fd5b5061028b6108f6565b6040518082815260200191505060405180910390f35b6000808154809291906001019190505550606060405190810160405280600054815260200182815260200160001515815250600160008054815260200190815260200160002060008201518160000155602082015181600101908051906020019061030d9291906108fc565b5060408201518160020160006101000a81548160ff0219169083151502179055509050507f05d0fb833127fc08168556d0e7ca9554fc3f6bc843b3b7d2bf1c35aea6bab660600054826000604051808481526020018060200183151515158152602001828103825284818151815260200191508051906020019080838360005b838110156103a857808201518184015260208101905061038d565b50505050905090810190601f1680156103d55780820380516001836020036101000a031916815260200191505b5094505050505060405180910390a150565b6103ef61097c565b600160008381526020019081526020016000206060604051908101604052908160008201548152602001600182018054600181600116156101000203166002900480601f0160208091040260200160405190810160405280929190818152602001828054600181600116156101000203166002900480156104b15780601f10610486576101008083540402835291602001916104b1565b820191906000526020600020905b81548152906001019060200180831161049457829003601f168201915b505050505081526020016002820160009054906101000a900460ff161515151581525050905080604001511581604001901515908115158152505080600160008481526020019081526020016000206000820151816000015560208201518160010190805190602001906105269291906108fc565b5060408201518160020160006101000a81548160ff0219169083151502179055509050507fb36dba0611b9e747259c1d687af8bebebf5217f0bb60cbd937fee265bdbf6c7282826040015160405180838152602001821515151581526020019250505060405180910390a15050565b60005481111515156105a657600080fd5b6105ae61097c565b60016000805481526020019081526020016000206060604051908101604052908160008201548152602001600182018054600181600116156101000203166002900480601f0160208091040260200160405190810160405280929190818152602001828054600181600116156101000203166002900480156106715780601f1061064657610100808354040283529160200191610671565b820191906000526020600020905b81548152906001019060200180831161065457829003601f168201915b505050505081526020016002820160009054906101000a900460ff16151515158152505090506000600183019050600160008281526020019081526020016000206000808201600090556001820160006106cb91906109a0565b6002820160006101000a81549060ff021916905550506060604051908101604052808281526020018360200151815260200183604001511515815250600160008381526020019081526020016000206000820151816000015560208201518160010190805190602001906107409291906108fc565b5060408201518160020160006101000a81548160ff0219169083151502179055509050506000808154809291906001900391905055507fa22e3c89596b7c57ffab8fec2bd1b7fb1c990c7daf72f79ca773c33fddfbd38b826000015183602001516040518083815260200180602001828103825283818151815260200191508051906020019080838360005b838110156107e75780820151818401526020810190506107cc565b50505050905090810190601f1680156108145780820380516001836020036101000a031916815260200191505b50935050505060405180910390a1505050565b6001602052806000526040600020600091509050806000015490806001018054600181600116156101000203166002900480601f0160208091040260200160405190810160405280929190818152602001828054600181600116156101000203166002900480156108d95780601f106108ae576101008083540402835291602001916108d9565b820191906000526020600020905b8154815290600101906020018083116108bc57829003601f168201915b5050505050908060020160009054906101000a900460ff16905083565b60005481565b828054600181600116156101000203166002900490600052602060002090601f016020900481019282601f1061093d57805160ff191683800117855561096b565b8280016001018555821561096b579182015b8281111561096a57825182559160200191906001019061094f565b5b50905061097891906109e8565b5090565b60606040519081016040528060008152602001606081526020016000151581525090565b50805460018160011615610100020316600290046000825580601f106109c657506109e5565b601f0160209004906000526020600020908101906109e491906109e8565b5b50565b610a0a91905b80821115610a065760008160009055506001016109ee565b5090565b9056fea165627a7a72305820056d63f5f67d4a2152b44d83b7c69b9968fff83fa14a6ecd8e495646a20b96e40029",
  "source": "pragma solidity >= 0.5.0;\r\n\r\ncontract TodoList {\r\n    uint public taskCount = 0;\r\n\r\n    struct Task {\r\n        uint id;\r\n        string content;\r\n        bool completed;\r\n    }\r\n\r\n    mapping(uint => Task) public tasks;\r\n\r\n    event TaskCreated(\r\n        uint id,\r\n        string content,\r\n        bool completed\r\n    );\r\n\r\n    event ToggleTask(\r\n        uint id,\r\n        bool completed\r\n    );\r\n\r\n    event TaskDeleted(\r\n        uint id,\r\n        string content\r\n    );\r\n\r\n    constructor() public {\r\n        createTask(\"Have a nice day\");\r\n        createTask(\"Have a nice day too\");\r\n    }\r\n\r\n    // function getTaskCount() public view returns(uint) {\r\n    //     return taskCount;\r\n    // }\r\n\r\n    function createTask(string memory _content) public {\r\n        taskCount ++;\r\n        tasks[taskCount] = Task(taskCount, _content, false);\r\n        emit TaskCreated(taskCount, _content, false);\r\n    }\r\n\r\n    function toggleCompleted(uint _id) public {\r\n        Task memory _task = tasks[_id];\r\n        _task.completed = !_task.completed;\r\n        tasks[_id] = _task;\r\n        emit ToggleTask(_id, _task.completed);\r\n\r\n    }\r\n\r\n    function deleteTask(uint _id) public {\r\n        require(_id <= taskCount);\r\n        // tasks[_id] = tasks[taskCount];\r\n        Task memory _task1 = tasks[taskCount]; //market\r\n        // Task memory _task2 = tasks[_id];\r\n        // _task2.id = _task1.id; // id = \r\n        // _task2.content = _task1.content; \r\n        // _task2.completed = _task1.completed;\r\n        uint newId = _id + 1;\r\n        delete tasks[newId];\r\n        tasks[newId] = Task(newId, _task1.content, _task1.completed);\r\n        // delete tasks[taskCount];\r\n        taskCount --;\r\n        emit TaskDeleted(_task1.id, _task1.content);\r\n    }\r\n}",
  "sourcePath": "E:/BlockchainApp/todo-list/src/contracts/TodoList.sol",
  "compiler": {
    "name": "solc",
    "version": "0.5.0+commit.1d4f565a.Emscripten.clang"
  },
  "schemaVersion": "3.0.2",
  "updatedAt": "2022-07-26T08:53:12.954Z",
  "devdoc": {
    "methods": {}
  },
  "userdoc": {
    "methods": {}
  }
}